{
  "contractName": "CrowdFunding",
  "abi": [
    {
      "anonymous": false,
      "inputs": [
        {
          "indexed": false,
          "internalType": "uint256",
          "name": "campaignId",
          "type": "uint256"
        },
        {
          "indexed": false,
          "internalType": "address",
          "name": "recipient",
          "type": "address"
        },
        {
          "indexed": false,
          "internalType": "uint256",
          "name": "fundingGoal",
          "type": "uint256"
        }
      ],
      "name": "CampaignCreated",
      "type": "event"
    },
    {
      "anonymous": false,
      "inputs": [
        {
          "indexed": false,
          "internalType": "uint256",
          "name": "campaignId",
          "type": "uint256"
        },
        {
          "indexed": false,
          "internalType": "address",
          "name": "donor",
          "type": "address"
        },
        {
          "indexed": false,
          "internalType": "uint256",
          "name": "amount",
          "type": "uint256"
        }
      ],
      "name": "DonationReceived",
      "type": "event"
    },
    {
      "anonymous": false,
      "inputs": [
        {
          "indexed": false,
          "internalType": "uint256",
          "name": "campaignId",
          "type": "uint256"
        },
        {
          "indexed": false,
          "internalType": "address",
          "name": "recipient",
          "type": "address"
        },
        {
          "indexed": false,
          "internalType": "uint256",
          "name": "amount",
          "type": "uint256"
        }
      ],
      "name": "Withdrawal",
      "type": "event"
    },
    {
      "inputs": [],
      "name": "campaignCount",
      "outputs": [
        {
          "internalType": "uint256",
          "name": "",
          "type": "uint256"
        }
      ],
      "stateMutability": "view",
      "type": "function",
      "constant": true
    },
    {
      "inputs": [
        {
          "internalType": "uint256",
          "name": "",
          "type": "uint256"
        }
      ],
      "name": "campaigns",
      "outputs": [
        {
          "internalType": "address payable",
          "name": "recipient",
          "type": "address"
        },
        {
          "internalType": "uint256",
          "name": "fundingGoal",
          "type": "uint256"
        },
        {
          "internalType": "uint256",
          "name": "amountRaised",
          "type": "uint256"
        },
        {
          "internalType": "bool",
          "name": "isActive",
          "type": "bool"
        }
      ],
      "stateMutability": "view",
      "type": "function",
      "constant": true
    },
    {
      "inputs": [
        {
          "internalType": "address payable",
          "name": "_recipient",
          "type": "address"
        },
        {
          "internalType": "uint256",
          "name": "_goal",
          "type": "uint256"
        }
      ],
      "name": "createCampaign",
      "outputs": [],
      "stateMutability": "nonpayable",
      "type": "function"
    },
    {
      "inputs": [
        {
          "internalType": "uint256",
          "name": "_campaignId",
          "type": "uint256"
        }
      ],
      "name": "donate",
      "outputs": [],
      "stateMutability": "payable",
      "type": "function",
      "payable": true
    },
    {
      "inputs": [
        {
          "internalType": "uint256",
          "name": "_campaignId",
          "type": "uint256"
        }
      ],
      "name": "withdraw",
      "outputs": [],
      "stateMutability": "nonpayable",
      "type": "function"
    }
  ],
  "bytecode": "0x6080604052600060015534801561001557600080fd5b50610be5806100256000396000f3fe60806040526004361061004a5760003560e01c8063064e1faf1461004f578063141961bc146100785780632e1a7d4d146100b85780637274e30d146100e1578063f14faf6f1461010c575b600080fd5b34801561005b57600080fd5b506100766004803603810190610071919061069d565b610128565b005b34801561008457600080fd5b5061009f600480360381019061009a91906106dd565b61024e565b6040516100af9493929190610743565b60405180910390f35b3480156100c457600080fd5b506100df60048036038101906100da91906106dd565b6102ab565b005b3480156100ed57600080fd5b506100f66104ef565b6040516101039190610788565b60405180910390f35b610126600480360381019061012191906106dd565b6104f5565b005b60405180608001604052808373ffffffffffffffffffffffffffffffffffffffff1681526020018281526020016000815260200160011515815250600080600154815260200190815260200160002060008201518160000160006101000a81548173ffffffffffffffffffffffffffffffffffffffff021916908373ffffffffffffffffffffffffffffffffffffffff160217905550602082015181600101556040820151816002015560608201518160030160006101000a81548160ff0219169083151502179055509050507f63e3678c8493a16f8ba43ae9e547231762ca04526dac2c388bd2c26d89401851600154838360405161022a93929190610802565b60405180910390a16001600081548092919061024590610868565b91905055505050565b60006020528060005260406000206000915090508060000160009054906101000a900473ffffffffffffffffffffffffffffffffffffffff16908060010154908060020154908060030160009054906101000a900460ff16905084565b6000806000838152602001908152602001600020905080600101548160020154101561030c576040517f08c379a00000000000000000000000000000000000000000000000000000000081526004016103039061090d565b60405180910390fd5b8060000160009054906101000a900473ffffffffffffffffffffffffffffffffffffffff1673ffffffffffffffffffffffffffffffffffffffff163373ffffffffffffffffffffffffffffffffffffffff161461039e576040517f08c379a000000000000000000000000000000000000000000000000000000000815260040161039590610979565b60405180910390fd5b600015158160030160009054906101000a9050505060008160000160009054906101000a900473ffffffffffffffffffffffffffffffffffffffff1673ffffffffffffffffffffffffffffffffffffffff168260020154604051610401906109ca565b60006040518083038185875af1925050503d806000811461043e576040519150601f19603f3d011682016040523d82523d6000602084013e610443565b606091505b5050905080610487576040517f08c379a000000000000000000000000000000000000000000000000000000000815260040161047e90610a2b565b60405180910390fd5b7f37e8063b72a944a76de602f32b82fd8c2a1c6f99564c727ffaf913c7762cd420838360000160009054906101000a900473ffffffffffffffffffffffffffffffffffffffff1684600201546040516104e293929190610802565b60405180910390a1505050565b60015481565b60008082815260200190815260200160002060030160009054906101000a900460ff16610557576040517f08c379a000000000000000000000000000000000000000000000000000000000815260040161054e90610a97565b60405180910390fd5b6000341161059a576040517f08c379a000000000000000000000000000000000000000000000000000000000815260040161059190610b03565b60405180910390fd5b3460008083815260200190815260200160002060020160008282546105bf9190610b23565b925050819055507f0b5b4c52969ff7329ecf7ee536409fda87812b15a8622bc6e8cdeab3aee14a268133346040516105f993929190610b78565b60405180910390a150565b600080fd5b600073ffffffffffffffffffffffffffffffffffffffff82169050919050565b600061063482610609565b9050919050565b61064481610629565b811461064f57600080fd5b50565b6000813590506106618161063b565b92915050565b6000819050919050565b61067a81610667565b811461068557600080fd5b50565b60008135905061069781610671565b92915050565b600080604083850312156106b4576106b3610604565b5b60006106c285828601610652565b92505060206106d385828601610688565b9150509250929050565b6000602082840312156106f3576106f2610604565b5b600061070184828501610688565b91505092915050565b61071381610629565b82525050565b61072281610667565b82525050565b60008115159050919050565b61073d81610728565b82525050565b6000608082019050610758600083018761070a565b6107656020830186610719565b6107726040830185610719565b61077f6060830184610734565b95945050505050565b600060208201905061079d6000830184610719565b92915050565b6000819050919050565b60006107c86107c36107be84610609565b6107a3565b610609565b9050919050565b60006107da826107ad565b9050919050565b60006107ec826107cf565b9050919050565b6107fc816107e1565b82525050565b60006060820190506108176000830186610719565b61082460208301856107f3565b6108316040830184610719565b949350505050565b7f4e487b7100000000000000000000000000000000000000000000000000000000600052601160045260246000fd5b600061087382610667565b91507fffffffffffffffffffffffffffffffffffffffffffffffffffffffffffffffff82036108a5576108a4610839565b5b600182019050919050565b600082825260208201905092915050565b7f46756e64696e6720476f616c206e6f7420726561636865640000000000000000600082015250565b60006108f76018836108b0565b9150610902826108c1565b602082019050919050565b60006020820190508181036000830152610926816108ea565b9050919050565b7f4f6e6c792074686520726563697069656e742063616e20776974686472617700600082015250565b6000610963601f836108b0565b915061096e8261092d565b602082019050919050565b6000602082019050818103600083015261099281610956565b9050919050565b600081905092915050565b50565b60006109b4600083610999565b91506109bf826109a4565b600082019050919050565b60006109d5826109a7565b9150819050919050565b7f5472616e73666572206661696c65642e00000000000000000000000000000000600082015250565b6000610a156010836108b0565b9150610a20826109df565b602082019050919050565b60006020820190508181036000830152610a4481610a08565b9050919050565b7f43616d706169676e206973206e6f742061637469766500000000000000000000600082015250565b6000610a816016836108b0565b9150610a8c82610a4b565b602082019050919050565b60006020820190508181036000830152610ab081610a74565b9050919050565b7f446f6e6174696f6e206d7573742062652067726561746572207468616e203000600082015250565b6000610aed601f836108b0565b9150610af882610ab7565b602082019050919050565b60006020820190508181036000830152610b1c81610ae0565b9050919050565b6000610b2e82610667565b9150610b3983610667565b9250828201905080821115610b5157610b50610839565b5b92915050565b6000610b6282610609565b9050919050565b610b7281610b57565b82525050565b6000606082019050610b8d6000830186610719565b610b9a6020830185610b69565b610ba76040830184610719565b94935050505056fea26469706673582212204d6647fb8d137d8419a9c1c64140dedabbb74b4beac2ff058b7c39d894da52b664736f6c63430008130033",
  "immutableReferences": {},
  "source": "// SPDX-License-Identifier: MIT\r\npragma solidity ^0.8.19;\r\n\r\ncontract CrowdFunding {\r\n    struct Campaign {\r\n        address payable recipient;\r\n        uint256 fundingGoal;\r\n        uint256 amountRaised;\r\n        bool isActive;\r\n    }\r\n\r\n    mapping(uint256 => Campaign) public campaigns;\r\n\r\n    uint256 public campaignCount = 0;\r\n\r\n    event CampaignCreated(\r\n        uint256 campaignId,\r\n        address recipient,\r\n        uint256 fundingGoal\r\n    );\r\n    event DonationReceived(uint256 campaignId, address donor, uint256 amount);\r\n    event Withdrawal(uint256 campaignId, address recipient, uint256 amount);\r\n\r\n    function createCampaign(address payable _recipient, uint256 _goal) public {\r\n        campaigns[campaignCount] = Campaign({\r\n            recipient: _recipient,\r\n            fundingGoal: _goal,\r\n            amountRaised: 0,\r\n            isActive: true\r\n        });\r\n\r\n        emit CampaignCreated(campaignCount, _recipient, _goal);\r\n        campaignCount++;\r\n    }\r\n\r\n    function donate(uint256 _campaignId) public payable {\r\n        require(campaigns[_campaignId].isActive, \"Campaign is not active\");\r\n        require(msg.value > 0, \"Donation must be greater than 0\");\r\n\r\n        campaigns[_campaignId].amountRaised += msg.value;\r\n\r\n        emit DonationReceived(_campaignId, msg.sender, msg.value);\r\n    }\r\n\r\n    function withdraw(uint256 _campaignId) public {\r\n        Campaign storage campaign = campaigns[_campaignId];\r\n        require(\r\n            campaign.amountRaised >= campaign.fundingGoal,\r\n            \"Funding Goal not reached\"\r\n        );\r\n\r\n        require(\r\n            msg.sender == campaign.recipient,\r\n            \"Only the recipient can withdraw\"\r\n        );\r\n\r\n        campaign.isActive == false;\r\n\r\n        (bool success, ) = campaign.recipient.call{\r\n            value: campaign.amountRaised\r\n        }(\"\");\r\n        // payable(campaign.recipient).transfer(campaign.amountRaised);\r\n\r\n        require(success, \"Transfer failed.\");\r\n\r\n        emit Withdrawal(_campaignId, campaign.recipient, campaign.amountRaised);\r\n    }\r\n}\r\n",
  "sourcePath": "F:\\Capstone Project 2024\\CrowdFunding\\web3\\contracts\\CrowdFunding.sol",
  "compiler": {
    "name": "solc",
    "version": "0.8.19+commit.7dd6d404.Emscripten.clang"
  },
  "schemaVersion": "3.4.16",
  "updatedAt": "2024-08-22T19:58:21.338Z",
  "networkType": "ethereum",
  "devdoc": {
    "kind": "dev",
    "methods": {},
    "version": 1
  },
  "userdoc": {
    "kind": "user",
    "methods": {},
    "version": 1
  }
}